{"abi":[{"type":"constructor","inputs":[{"name":"_owner","type":"address","internalType":"address"},{"name":"_player1","type":"address","internalType":"address"},{"name":"_name1","type":"string","internalType":"string"},{"name":"_player2","type":"address","internalType":"address"},{"name":"_name2","type":"string","internalType":"string"}],"stateMutability":"payable"},{"type":"function","name":"P1moves","inputs":[],"outputs":[{"name":"move1","type":"uint8","internalType":"uint8"},{"name":"move2","type":"uint8","internalType":"uint8"},{"name":"move3","type":"uint8","internalType":"uint8"},{"name":"move4","type":"uint8","internalType":"uint8"},{"name":"move5","type":"uint8","internalType":"uint8"},{"name":"move6","type":"uint8","internalType":"uint8"}],"stateMutability":"view"},{"type":"function","name":"P2moves","inputs":[],"outputs":[{"name":"move1","type":"uint8","internalType":"uint8"},{"name":"move2","type":"uint8","internalType":"uint8"},{"name":"move3","type":"uint8","internalType":"uint8"},{"name":"move4","type":"uint8","internalType":"uint8"},{"name":"move5","type":"uint8","internalType":"uint8"},{"name":"move6","type":"uint8","internalType":"uint8"}],"stateMutability":"view"},{"type":"function","name":"PerformMoves","inputs":[{"name":"_move1","type":"uint8","internalType":"uint8"},{"name":"_move2","type":"uint8","internalType":"uint8"},{"name":"_move3","type":"uint8","internalType":"uint8"},{"name":"_move4","type":"uint8","internalType":"uint8"},{"name":"_move5","type":"uint8","internalType":"uint8"}],"outputs":[],"stateMutability":"nonpayable"},{"type":"function","name":"calculateResult","inputs":[],"outputs":[],"stateMutability":"nonpayable"},{"type":"function","name":"gameCount","inputs":[],"outputs":[{"name":"","type":"uint8","internalType":"uint8"}],"stateMutability":"view"},{"type":"function","name":"gameState","inputs":[],"outputs":[{"name":"","type":"uint8","internalType":"enum PlayGround.Gamestate"}],"stateMutability":"view"},{"type":"function","name":"moveSelectionDuration","inputs":[],"outputs":[{"name":"","type":"uint256","internalType":"uint256"}],"stateMutability":"view"},{"type":"function","name":"moveSelectionStartTime","inputs":[],"outputs":[{"name":"","type":"uint256","internalType":"uint256"}],"stateMutability":"view"},{"type":"function","name":"owner","inputs":[],"outputs":[{"name":"","type":"address","internalType":"address"}],"stateMutability":"view"},{"type":"function","name":"player1","inputs":[],"outputs":[{"name":"playerAddress","type":"address","internalType":"address"},{"name":"name","type":"string","internalType":"string"},{"name":"health","type":"uint256","internalType":"uint256"},{"name":"basicAttackCount","type":"uint8","internalType":"uint8"},{"name":"mediumAttackCount","type":"uint8","internalType":"uint8"},{"name":"specialAttackCount","type":"uint8","internalType":"uint8"}],"stateMutability":"view"},{"type":"function","name":"player1Moved","inputs":[],"outputs":[{"name":"","type":"bool","internalType":"bool"}],"stateMutability":"view"},{"type":"function","name":"player2","inputs":[],"outputs":[{"name":"playerAddress","type":"address","internalType":"address"},{"name":"name","type":"string","internalType":"string"},{"name":"health","type":"uint256","internalType":"uint256"},{"name":"basicAttackCount","type":"uint8","internalType":"uint8"},{"name":"mediumAttackCount","type":"uint8","internalType":"uint8"},{"name":"specialAttackCount","type":"uint8","internalType":"uint8"}],"stateMutability":"view"},{"type":"function","name":"player2Moved","inputs":[],"outputs":[{"name":"","type":"bool","internalType":"bool"}],"stateMutability":"view"},{"type":"function","name":"waitDuration","inputs":[],"outputs":[{"name":"","type":"uint256","internalType":"uint256"}],"stateMutability":"view"},{"type":"event","name":"RoundCalculated","inputs":[{"name":"roundNumber","type":"uint8","indexed":false,"internalType":"uint8"},{"name":"player1Health","type":"uint256","indexed":false,"internalType":"uint256"},{"name":"player2Health","type":"uint256","indexed":false,"internalType":"uint256"},{"name":"nextRoundStartTime","type":"uint256","indexed":false,"internalType":"uint256"},{"name":"p1Moves","type":"uint8[5]","indexed":false,"internalType":"uint8[5]"},{"name":"p2Moves","type":"uint8[5]","indexed":false,"internalType":"uint8[5]"}],"anonymous":false}],"bytecode":{"object":"0x608060405260055f60146101000a81548160ff021916908360ff1602179055505f600260016101000a81548160ff021916908360ff1602179055505f6002806101000a81548160ff021916908360ff1602179055505f600d5f6101000a81548160ff0219169083151502179055505f600d60016101000a81548160ff02191690831515021790555060405161313438038061313483398181016040528101906100a8919061050a565b845f5f6101000a81548173ffffffffffffffffffffffffffffffffffffffff021916908373ffffffffffffffffffffffffffffffffffffffff160217905550600a426100f491906105ef565b6001819055506040518060c001604052808573ffffffffffffffffffffffffffffffffffffffff168152602001848152602001600a8152602001600360ff168152602001600260ff168152602001600160ff1681525060035f820151815f015f6101000a81548173ffffffffffffffffffffffffffffffffffffffff021916908373ffffffffffffffffffffffffffffffffffffffff16021790555060208201518160010190816101a59190610829565b50604082015181600201556060820151816003015f6101000a81548160ff021916908360ff16021790555060808201518160030160016101000a81548160ff021916908360ff16021790555060a08201518160030160026101000a81548160ff021916908360ff1602179055509050506040518060c001604052808373ffffffffffffffffffffffffffffffffffffffff168152602001828152602001600a8152602001600360ff168152602001600260ff168152602001600160ff1681525060075f820151815f015f6101000a81548173ffffffffffffffffffffffffffffffffffffffff021916908373ffffffffffffffffffffffffffffffffffffffff16021790555060208201518160010190816102c09190610829565b50604082015181600201556060820151816003015f6101000a81548160ff021916908360ff16021790555060808201518160030160016101000a81548160ff021916908360ff16021790555060a08201518160030160026101000a81548160ff021916908360ff1602179055509050505f60025f6101000a81548160ff02191690836001811115610354576103536108f8565b5b02179055505050505050610925565b5f604051905090565b5f5ffd5b5f5ffd5b5f73ffffffffffffffffffffffffffffffffffffffff82169050919050565b5f61039d82610374565b9050919050565b6103ad81610393565b81146103b7575f5ffd5b50565b5f815190506103c8816103a4565b92915050565b5f5ffd5b5f5ffd5b5f601f19601f8301169050919050565b7f4e487b71000000000000000000000000000000000000000000000000000000005f52604160045260245ffd5b61041c826103d6565b810181811067ffffffffffffffff8211171561043b5761043a6103e6565b5b80604052505050565b5f61044d610363565b90506104598282610413565b919050565b5f67ffffffffffffffff821115610478576104776103e6565b5b610481826103d6565b9050602081019050919050565b8281835e5f83830152505050565b5f6104ae6104a98461045e565b610444565b9050828152602081018484840111156104ca576104c96103d2565b5b6104d584828561048e565b509392505050565b5f82601f8301126104f1576104f06103ce565b5b815161050184826020860161049c565b91505092915050565b5f5f5f5f5f60a086880312156105235761052261036c565b5b5f610530888289016103ba565b9550506020610541888289016103ba565b945050604086015167ffffffffffffffff81111561056257610561610370565b5b61056e888289016104dd565b935050606061057f888289016103ba565b925050608086015167ffffffffffffffff8111156105a05761059f610370565b5b6105ac888289016104dd565b9150509295509295909350565b5f819050919050565b7f4e487b71000000000000000000000000000000000000000000000000000000005f52601160045260245ffd5b5f6105f9826105b9565b9150610604836105b9565b925082820190508082111561061c5761061b6105c2565b5b92915050565b5f81519050919050565b7f4e487b71000000000000000000000000000000000000000000000000000000005f52602260045260245ffd5b5f600282049050600182168061067057607f821691505b6020821081036106835761068261062c565b5b50919050565b5f819050815f5260205f209050919050565b5f6020601f8301049050919050565b5f82821b905092915050565b5f600883026106e57fffffffffffffffffffffffffffffffffffffffffffffffffffffffffffffffff826106aa565b6106ef86836106aa565b95508019841693508086168417925050509392505050565b5f819050919050565b5f61072a610725610720846105b9565b610707565b6105b9565b9050919050565b5f819050919050565b61074383610710565b61075761074f82610731565b8484546106b6565b825550505050565b5f5f905090565b61076e61075f565b61077981848461073a565b505050565b5b8181101561079c576107915f82610766565b60018101905061077f565b5050565b601f8211156107e1576107b281610689565b6107bb8461069b565b810160208510156107ca578190505b6107de6107d68561069b565b83018261077e565b50505b505050565b5f82821c905092915050565b5f6108015f19846008026107e6565b1980831691505092915050565b5f61081983836107f2565b9150826002028217905092915050565b61083282610622565b67ffffffffffffffff81111561084b5761084a6103e6565b5b6108558254610659565b6108608282856107a0565b5f60209050601f831160018114610891575f841561087f578287015190505b610889858261080e565b8655506108f0565b601f19841661089f86610689565b5f5b828110156108c6578489015182556001820191506020850194506020810190506108a1565b868310156108e357848901516108df601f8916826107f2565b8355505b6001600288020188555050505b505050505050565b7f4e487b71000000000000000000000000000000000000000000000000000000005f52602160045260245ffd5b612802806109325f395ff3fe608060405234801561000f575f5ffd5b50600436106100e8575f3560e01c80636e008b351161008a578063d1f9c24d11610064578063d1f9c24d14610211578063d30895e41461022f578063e95cc91314610252578063f39b734c14610270576100e8565b80636e008b35146101c65780638c219708146101d05780638da5cb5b146101f3576100e8565b80632da112e9116100c65780632da112e91461014b57806349426d32146101675780634d1975b41461018557806359a5f12d146101a3576100e8565b80630bdd347c146100ec5780631d86c0ee1461010a57806323003af814610128575b5f5ffd5b6100f461028e565b6040516101019190611e3e565b60405180910390f35b6101126102a1565b60405161011f9190611e6f565b60405180910390f35b6101306102a6565b60405161014296959493929190611ea3565b60405180910390f35b61016560048036038101906101609190611f30565b610317565b005b61016f610c4d565b60405161017c9190611e6f565b60405180910390f35b61018d610c53565b60405161019a9190611fa7565b60405180910390f35b6101ab610c65565b6040516101bd9695949392919061206f565b60405180910390f35b6101ce610d59565b005b6101d861177c565b6040516101ea96959493929190611ea3565b60405180910390f35b6101fb6117ed565b60405161020891906120d5565b60405180910390f35b610219611811565b6040516102269190612161565b60405180910390f35b610237611823565b6040516102499695949392919061206f565b60405180910390f35b61025a611917565b6040516102679190611e3e565b60405180910390f35b610278611929565b6040516102859190611e6f565b60405180910390f35b600d60019054906101000a900460ff1681565b600a81565b600b805f015f9054906101000a900460ff1690805f0160019054906101000a900460ff1690805f0160029054906101000a900460ff1690805f0160039054906101000a900460ff1690805f0160049054906101000a900460ff1690805f0160059054906101000a900460ff16905086565b5f600181111561032a576103296120ee565b5b60025f9054906101000a900460ff16600181111561034b5761034a6120ee565b5b1461038b576040517f08c379a0000000000000000000000000000000000000000000000000000000008152600401610382906121c4565b60405180910390fd5b60035f015f9054906101000a900473ffffffffffffffffffffffffffffffffffffffff1673ffffffffffffffffffffffffffffffffffffffff163373ffffffffffffffffffffffffffffffffffffffff161480610436575060075f015f9054906101000a900473ffffffffffffffffffffffffffffffffffffffff1673ffffffffffffffffffffffffffffffffffffffff163373ffffffffffffffffffffffffffffffffffffffff16145b610475576040517f08c379a000000000000000000000000000000000000000000000000000000000815260040161046c90612252565b60405180910390fd5b601e600154610484919061229d565b4211156104c6576040517f08c379a00000000000000000000000000000000000000000000000000000000081526004016104bd9061231a565b60405180910390fd5b600154421161050a576040517f08c379a000000000000000000000000000000000000000000000000000000000815260040161050190612382565b60405180910390fd5b5f60035f015f9054906101000a900473ffffffffffffffffffffffffffffffffffffffff1673ffffffffffffffffffffffffffffffffffffffff163373ffffffffffffffffffffffffffffffffffffffff161461056857600761056b565b60035b6040518060c00160405290815f82015f9054906101000a900473ffffffffffffffffffffffffffffffffffffffff1673ffffffffffffffffffffffffffffffffffffffff1673ffffffffffffffffffffffffffffffffffffffff1681526020016001820180546105da906123cd565b80601f0160208091040260200160405190810160405280929190818152602001828054610606906123cd565b80156106515780601f1061062857610100808354040283529160200191610651565b820191905f5260205f20905b81548152906001019060200180831161063457829003601f168201915b5050505050815260200160028201548152602001600382015f9054906101000a900460ff1660ff1660ff1681526020016003820160019054906101000a900460ff1660ff1660ff1681526020016003820160029054906101000a900460ff1660ff1660ff168152505090505f6040518060a001604052808860ff1660ff1681526020018760ff1660ff1681526020018660ff1660ff1681526020018560ff1660ff1681526020018460ff1660ff1681525090505f826060015190505f836080015190505f8460a0015190505f5f90505b600581101561087657600385826005811061073f5761073e6123fd565b5b602002015160ff1603610795575f8460ff16111561076a5783806107629061242a565b945050610790565b5f85826005811061077e5761077d6123fd565b5b602002019060ff16908160ff16815250505b610869565b60048582600581106107aa576107a96123fd565b5b602002015160ff1603610800575f8360ff1611156107d55782806107cd9061242a565b9350506107fb565b5f8582600581106107e9576107e86123fd565b5b602002019060ff16908160ff16815250505b610868565b6005858260058110610815576108146123fd565b5b602002015160ff1603610867575f8260ff1611156108405781806108389061242a565b925050610866565b5f858260058110610854576108536123fd565b5b602002019060ff16908160ff16815250505b5b5b5b8080600101915050610721565b50835f6005811061088a576108896123fd565b5b60200201519950836001600581106108a5576108a46123fd565b5b60200201519850836002600581106108c0576108bf6123fd565b5b60200201519750836003600581106108db576108da6123fd565b5b60200201519650836004600581106108f6576108f56123fd565b5b6020020151955060035f015f9054906101000a900473ffffffffffffffffffffffffffffffffffffffff1673ffffffffffffffffffffffffffffffffffffffff163373ffffffffffffffffffffffffffffffffffffffff1603610aca576040518060c001604052808b60ff1681526020018a60ff1681526020018960ff1681526020018860ff1681526020018760ff1681526020015f60ff16815250600b5f820151815f015f6101000a81548160ff021916908360ff1602179055506020820151815f0160016101000a81548160ff021916908360ff1602179055506040820151815f0160026101000a81548160ff021916908360ff1602179055506060820151815f0160036101000a81548160ff021916908360ff1602179055506080820151815f0160046101000a81548160ff021916908360ff16021790555060a0820151815f0160056101000a81548160ff021916908360ff16021790555090505082600380015f6101000a81548160ff021916908360ff160217905550816003800160016101000a81548160ff021916908360ff160217905550806003800160026101000a81548160ff021916908360ff1602179055506001600d5f6101000a81548160ff021916908315150217905550610c41565b6040518060c001604052808b60ff1681526020018a60ff1681526020018960ff1681526020018860ff1681526020018760ff1681526020015f60ff16815250600c5f820151815f015f6101000a81548160ff021916908360ff1602179055506020820151815f0160016101000a81548160ff021916908360ff1602179055506040820151815f0160026101000a81548160ff021916908360ff1602179055506060820151815f0160036101000a81548160ff021916908360ff1602179055506080820151815f0160046101000a81548160ff021916908360ff16021790555060a0820151815f0160056101000a81548160ff021916908360ff1602179055509050508260076003015f6101000a81548160ff021916908360ff16021790555081600760030160016101000a81548160ff021916908360ff16021790555080600760030160026101000a81548160ff021916908360ff1602179055506001600d60016101000a81548160ff0219169083151502179055505b50505050505050505050565b60015481565b5f60149054906101000a900460ff1681565b6007805f015f9054906101000a900473ffffffffffffffffffffffffffffffffffffffff1690806001018054610c9a906123cd565b80601f0160208091040260200160405190810160405280929190818152602001828054610cc6906123cd565b8015610d115780601f10610ce857610100808354040283529160200191610d11565b820191905f5260205f20905b815481529060010190602001808311610cf457829003601f168201915b505050505090806002015490806003015f9054906101000a900460ff16908060030160019054906101000a900460ff16908060030160029054906101000a900460ff16905086565b5f6001811115610d6c57610d6b6120ee565b5b60025f9054906101000a900460ff166001811115610d8d57610d8c6120ee565b5b14610dcd576040517f08c379a0000000000000000000000000000000000000000000000000000000008152600401610dc4906121c4565b60405180910390fd5b601e600154610ddc919061229d565b42101580610e0d5750600d5f9054906101000a900460ff168015610e0c5750600d60019054906101000a900460ff165b5b610e4c576040517f08c379a0000000000000000000000000000000000000000000000000000000008152600401610e43906124c1565b60405180910390fd5b5f601481819054906101000a900460ff1680929190610e6a9061242a565b91906101000a81548160ff021916908360ff16021790555050610e8b611e02565b610e93611e02565b5f5f90505b600581101561107057610f5e600b6040518060c00160405290815f82015f9054906101000a900460ff1660ff1660ff1681526020015f820160019054906101000a900460ff1660ff1660ff1681526020015f820160029054906101000a900460ff1660ff1660ff1681526020015f820160039054906101000a900460ff1660ff1660ff1681526020015f820160049054906101000a900460ff1660ff1660ff1681526020015f820160059054906101000a900460ff1660ff1660ff16815250508261192e565b838260058110610f7157610f706123fd565b5b602002019060ff16908160ff168152505061103f600c6040518060c00160405290815f82015f9054906101000a900460ff1660ff1660ff1681526020015f820160019054906101000a900460ff1660ff1660ff1681526020015f820160029054906101000a900460ff1660ff1660ff1681526020015f820160039054906101000a900460ff1660ff1660ff1681526020015f820160049054906101000a900460ff1660ff1660ff1681526020015f820160059054906101000a900460ff1660ff1660ff16815250508261192e565b828260058110611052576110516123fd565b5b602002019060ff16908160ff16815250508080600101915050610e98565b505f600260019054906101000a900460ff1690505f60028054906101000a900460ff1690505f5f90505f5f90505f5f90505f5f90505f5f90505f5f90505f5f90505b60058110156112fd575f8b82600581106110cf576110ce6123fd565b5b602002015190505f8b83600581106110ea576110e96123fd565b5b6020020151905060018260ff16036111055760019a50611115565b60028260ff1603611114575f9a505b5b60018160ff16036111295760019950611139565b60028160ff1603611138575f99505b5b5f5f905060038360ff16106111585760028361115591906124df565b90505b5f5f905060038360ff16106111775760028361117491906124df565b90505b5f8960ff1611156111ee578760ff168d60ff16036111ed575f8260ff1611156111dd578160ff168960ff1611156111c95781896111b491906124df565b876111bf9190612513565b96505f91506111d8565b88826111d591906124df565b91505b6111ec565b88876111e99190612513565b96505b5b5b5f8b60ff161115611265578960ff168c60ff1603611264575f8160ff161115611254578060ff168b60ff16111561124057808b61122b91906124df565b866112369190612513565b95505f905061124f565b8a8161124c91906124df565b90505b611263565b8a866112609190612513565b95505b5b5b5f8260ff1611801561127957505f8160ff16115b801561128a57508b60ff168d60ff16145b156112e0578060ff168260ff1611156112b35780826112a991906124df565b91505f90506112df565b8160ff168160ff1611156112d75781816112cd91906124df565b90505f91506112de565b5f91505f90505b5b5b819a508c99508098508b97505050505080806001019150506110b2565b505f8460ff1611801561131557508260ff168860ff16145b156113295783826113269190612513565b91505b5f8660ff1611801561134057508460ff168760ff16145b156113545785816113519190612513565b90505b87600260016101000a81548160ff021916908360ff160217905550866002806101000a81548160ff021916908360ff1602179055506003600201548260ff16106113a7575f6003600201819055506113c6565b8160ff1660036002015f8282546113be9190612547565b925050819055505b6007600201548160ff16106113e4575f600760020181905550611403565b8060ff1660076002015f8282546113fb9190612547565b925050819055505b5f600360020154148061141a57505f600760020154145b8061143557505f5f60149054906101000a900460ff1660ff16145b156114ca576114426119af565b600160025f6101000a81548160ff02191690836001811115611467576114666120ee565b5b02179055507f0a9e3a4c3d43d9002de5a06df43b2b84510763460d9d50441f4abdaa76ffcf905f60149054906101000a900460ff166003600201546007600201545f8e8e6040516114bd96959493929190612661565b60405180910390a1611770565b600a426114d7919061229d565b6001819055506040518060c001604052805f60ff1681526020015f60ff1681526020015f60ff1681526020015f60ff1681526020015f60ff1681526020015f60ff16815250600b5f820151815f015f6101000a81548160ff021916908360ff1602179055506020820151815f0160016101000a81548160ff021916908360ff1602179055506040820151815f0160026101000a81548160ff021916908360ff1602179055506060820151815f0160036101000a81548160ff021916908360ff1602179055506080820151815f0160046101000a81548160ff021916908360ff16021790555060a0820151815f0160056101000a81548160ff021916908360ff1602179055509050506040518060c001604052805f60ff1681526020015f60ff1681526020015f60ff1681526020015f60ff1681526020015f60ff1681526020015f60ff16815250600c5f820151815f015f6101000a81548160ff021916908360ff1602179055506020820151815f0160016101000a81548160ff021916908360ff1602179055506040820151815f0160026101000a81548160ff021916908360ff1602179055506060820151815f0160036101000a81548160ff021916908360ff1602179055506080820151815f0160046101000a81548160ff021916908360ff16021790555060a0820151815f0160056101000a81548160ff021916908360ff1602179055509050505f600d5f6101000a81548160ff0219169083151502179055505f600d60016101000a81548160ff0219169083151502179055507f0a9e3a4c3d43d9002de5a06df43b2b84510763460d9d50441f4abdaa76ffcf905f60149054906101000a900460ff166003600201546007600201546001548e8e604051611767969594939291906126c2565b60405180910390a15b50505050505050505050565b600c805f015f9054906101000a900460ff1690805f0160019054906101000a900460ff1690805f0160029054906101000a900460ff1690805f0160039054906101000a900460ff1690805f0160049054906101000a900460ff1690805f0160059054906101000a900460ff16905086565b5f5f9054906101000a900473ffffffffffffffffffffffffffffffffffffffff1681565b60025f9054906101000a900460ff1681565b6003805f015f9054906101000a900473ffffffffffffffffffffffffffffffffffffffff1690806001018054611858906123cd565b80601f0160208091040260200160405190810160405280929190818152602001828054611884906123cd565b80156118cf5780601f106118a6576101008083540402835291602001916118cf565b820191905f5260205f20905b8154815290600101906020018083116118b257829003601f168201915b505050505090806002015490806003015f9054906101000a900460ff16908060030160019054906101000a900460ff16908060030160029054906101000a900460ff16905086565b600d5f9054906101000a900460ff1681565b601e81565b5f5f820361194157825f015190506119a9565b6001820361195557826020015190506119a9565b6002820361196957826040015190506119a9565b6003820361197d57826060015190506119a9565b6004820361199157826080015190506119a9565b600582036119a5578260a0015190506119a9565b5f90505b92915050565b60076002015460036002015403611a8e575f5f5f9054906101000a900473ffffffffffffffffffffffffffffffffffffffff1673ffffffffffffffffffffffffffffffffffffffff1647604051611a0590612750565b5f6040518083038185875af1925050503d805f8114611a3f576040519150601f19603f3d011682016040523d82523d5f602084013e611a44565b606091505b5050905080611a88576040517f08c379a0000000000000000000000000000000000000000000000000000000008152600401611a7f906127ae565b60405180910390fd5b50611e00565b6007600201546003600201541015611c48575f60075f015f9054906101000a900473ffffffffffffffffffffffffffffffffffffffff1673ffffffffffffffffffffffffffffffffffffffff166605543df729c000604051611aef90612750565b5f6040518083038185875af1925050503d805f8114611b29576040519150601f19603f3d011682016040523d82523d5f602084013e611b2e565b606091505b5050905080611b72576040517f08c379a0000000000000000000000000000000000000000000000000000000008152600401611b69906127ae565b60405180910390fd5b5f5f5f9054906101000a900473ffffffffffffffffffffffffffffffffffffffff1673ffffffffffffffffffffffffffffffffffffffff166601c6bf52634000604051611bbe90612750565b5f6040518083038185875af1925050503d805f8114611bf8576040519150601f19603f3d011682016040523d82523d5f602084013e611bfd565b606091505b5050905080611c41576040517f08c379a0000000000000000000000000000000000000000000000000000000008152600401611c38906127ae565b60405180910390fd5b5050611dff565b6003600201546007600201541015611dfe575f60035f015f9054906101000a900473ffffffffffffffffffffffffffffffffffffffff1673ffffffffffffffffffffffffffffffffffffffff166605543df729c000604051611ca990612750565b5f6040518083038185875af1925050503d805f8114611ce3576040519150601f19603f3d011682016040523d82523d5f602084013e611ce8565b606091505b5050905080611d2c576040517f08c379a0000000000000000000000000000000000000000000000000000000008152600401611d23906127ae565b60405180910390fd5b5f5f5f9054906101000a900473ffffffffffffffffffffffffffffffffffffffff1673ffffffffffffffffffffffffffffffffffffffff166601c6bf52634000604051611d7890612750565b5f6040518083038185875af1925050503d805f8114611db2576040519150601f19603f3d011682016040523d82523d5f602084013e611db7565b606091505b5050905080611dfb576040517f08c379a0000000000000000000000000000000000000000000000000000000008152600401611df2906127ae565b60405180910390fd5b50505b5b5b565b6040518060a00160405280600590602082028036833780820191505090505090565b5f8115159050919050565b611e3881611e24565b82525050565b5f602082019050611e515f830184611e2f565b92915050565b5f819050919050565b611e6981611e57565b82525050565b5f602082019050611e825f830184611e60565b92915050565b5f60ff82169050919050565b611e9d81611e88565b82525050565b5f60c082019050611eb65f830189611e94565b611ec36020830188611e94565b611ed06040830187611e94565b611edd6060830186611e94565b611eea6080830185611e94565b611ef760a0830184611e94565b979650505050505050565b5f5ffd5b611f0f81611e88565b8114611f19575f5ffd5b50565b5f81359050611f2a81611f06565b92915050565b5f5f5f5f5f60a08688031215611f4957611f48611f02565b5b5f611f5688828901611f1c565b9550506020611f6788828901611f1c565b9450506040611f7888828901611f1c565b9350506060611f8988828901611f1c565b9250506080611f9a88828901611f1c565b9150509295509295909350565b5f602082019050611fba5f830184611e94565b92915050565b5f73ffffffffffffffffffffffffffffffffffffffff82169050919050565b5f611fe982611fc0565b9050919050565b611ff981611fdf565b82525050565b5f81519050919050565b5f82825260208201905092915050565b8281835e5f83830152505050565b5f601f19601f8301169050919050565b5f61204182611fff565b61204b8185612009565b935061205b818560208601612019565b61206481612027565b840191505092915050565b5f60c0820190506120825f830189611ff0565b81810360208301526120948188612037565b90506120a36040830187611e60565b6120b06060830186611e94565b6120bd6080830185611e94565b6120ca60a0830184611e94565b979650505050505050565b5f6020820190506120e85f830184611ff0565b92915050565b7f4e487b71000000000000000000000000000000000000000000000000000000005f52602160045260245ffd5b6002811061212c5761212b6120ee565b5b50565b5f81905061213c8261211b565b919050565b5f61214b8261212f565b9050919050565b61215b81612141565b82525050565b5f6020820190506121745f830184612152565b92915050565b7f47616d6520697320456e646564000000000000000000000000000000000000005f82015250565b5f6121ae600d83612009565b91506121b98261217a565b602082019050919050565b5f6020820190508181035f8301526121db816121a2565b9050919050565b7f4f6e6c79207265676973746572656420706c61796572732063616e20706572665f8201527f6f726d206d6f7665730000000000000000000000000000000000000000000000602082015250565b5f61223c602983612009565b9150612247826121e2565b604082019050919050565b5f6020820190508181035f83015261226981612230565b9050919050565b7f4e487b71000000000000000000000000000000000000000000000000000000005f52601160045260245ffd5b5f6122a782611e57565b91506122b283611e57565b92508282019050808211156122ca576122c9612270565b5b92915050565b7f4d6f76652073656c656374696f6e20706572696f642068617320656e646564005f82015250565b5f612304601f83612009565b915061230f826122d0565b602082019050919050565b5f6020820190508181035f830152612331816122f8565b9050919050565b7f47616d6520686173206e6f7420737461727465642079657400000000000000005f82015250565b5f61236c601883612009565b915061237782612338565b602082019050919050565b5f6020820190508181035f83015261239981612360565b9050919050565b7f4e487b71000000000000000000000000000000000000000000000000000000005f52602260045260245ffd5b5f60028204905060018216806123e457607f821691505b6020821081036123f7576123f66123a0565b5b50919050565b7f4e487b71000000000000000000000000000000000000000000000000000000005f52603260045260245ffd5b5f61243482611e88565b91505f820361244657612445612270565b5b600182039050919050565b7f526573756c742063616c63756c6174696f6e206e6f7420616c6c6f77656420795f8201527f6574000000000000000000000000000000000000000000000000000000000000602082015250565b5f6124ab602283612009565b91506124b682612451565b604082019050919050565b5f6020820190508181035f8301526124d88161249f565b9050919050565b5f6124e982611e88565b91506124f483611e88565b9250828203905060ff81111561250d5761250c612270565b5b92915050565b5f61251d82611e88565b915061252883611e88565b9250828201905060ff81111561254157612540612270565b5b92915050565b5f61255182611e57565b915061255c83611e57565b925082820390508181111561257457612573612270565b5b92915050565b5f819050919050565b5f819050919050565b5f6125a66125a161259c8461257a565b612583565b611e57565b9050919050565b6125b68161258c565b82525050565b5f60059050919050565b5f81905092915050565b5f819050919050565b6125e281611e88565b82525050565b5f6125f383836125d9565b60208301905092915050565b5f602082019050919050565b612614816125bc565b61261e81846125c6565b9250612629826125d0565b805f5b8381101561265957815161264087826125e8565b965061264b836125ff565b92505060018101905061262c565b505050505050565b5f6101c0820190506126755f830189611e94565b6126826020830188611e60565b61268f6040830187611e60565b61269c60608301866125ad565b6126a9608083018561260b565b6126b761012083018461260b565b979650505050505050565b5f6101c0820190506126d65f830189611e94565b6126e36020830188611e60565b6126f06040830187611e60565b6126fd6060830186611e60565b61270a608083018561260b565b61271861012083018461260b565b979650505050505050565b5f81905092915050565b50565b5f61273b5f83612723565b91506127468261272d565b5f82019050919050565b5f61275a82612730565b9150819050919050565b7f5472616e73666572206661696c656400000000000000000000000000000000005f82015250565b5f612798600f83612009565b91506127a382612764565b602082019050919050565b5f6020820190508181035f8301526127c58161278c565b905091905056fea264697066735822122016dacc5b8c9b488380a4893bdbf7663ef7a894df96e72c3981359c73a512cdbf64736f6c634300081c0033","linkReferences":{}},"methodIdentifiers":{"P1moves()":"23003af8","P2moves()":"8c219708","PerformMoves(uint8,uint8,uint8,uint8,uint8)":"2da112e9","calculateResult()":"6e008b35","gameCount()":"4d1975b4","gameState()":"d1f9c24d","moveSelectionDuration()":"f39b734c","moveSelectionStartTime()":"49426d32","owner()":"8da5cb5b","player1()":"d30895e4","player1Moved()":"e95cc913","player2()":"59a5f12d","player2Moved()":"0bdd347c","waitDuration()":"1d86c0ee"},"id":1}